{
  "contractName": "Event",
  "abi": [
    {
      "inputs": [
        {
          "internalType": "address payable",
          "name": "_organizer",
          "type": "address"
        },
        {
          "internalType": "string",
          "name": "_event_title",
          "type": "string"
        },
        {
          "internalType": "string",
          "name": "_event_website",
          "type": "string"
        },
        {
          "internalType": "string",
          "name": "_event_description",
          "type": "string"
        },
        {
          "internalType": "uint256",
          "name": "_event_start",
          "type": "uint256"
        },
        {
          "internalType": "uint256",
          "name": "_ticket_price",
          "type": "uint256"
        },
        {
          "internalType": "uint256",
          "name": "_number_tickets",
          "type": "uint256"
        }
      ],
      "payable": false,
      "stateMutability": "nonpayable",
      "type": "constructor"
    },
    {
      "anonymous": false,
      "inputs": [
        {
          "indexed": true,
          "internalType": "address",
          "name": "owner",
          "type": "address"
        },
        {
          "indexed": true,
          "internalType": "address",
          "name": "approved",
          "type": "address"
        },
        {
          "indexed": true,
          "internalType": "uint256",
          "name": "tokenId",
          "type": "uint256"
        }
      ],
      "name": "Approval",
      "type": "event"
    },
    {
      "anonymous": false,
      "inputs": [
        {
          "indexed": true,
          "internalType": "address",
          "name": "owner",
          "type": "address"
        },
        {
          "indexed": true,
          "internalType": "address",
          "name": "operator",
          "type": "address"
        },
        {
          "indexed": false,
          "internalType": "bool",
          "name": "approved",
          "type": "bool"
        }
      ],
      "name": "ApprovalForAll",
      "type": "event"
    },
    {
      "anonymous": false,
      "inputs": [
        {
          "indexed": false,
          "internalType": "address",
          "name": "_event",
          "type": "address"
        },
        {
          "indexed": false,
          "internalType": "address",
          "name": "_organizer",
          "type": "address"
        },
        {
          "indexed": false,
          "internalType": "uint256",
          "name": "_balance",
          "type": "uint256"
        }
      ],
      "name": "PaymentCollected",
      "type": "event"
    },
    {
      "anonymous": false,
      "inputs": [
        {
          "indexed": false,
          "internalType": "address",
          "name": "purchaser",
          "type": "address"
        },
        {
          "indexed": false,
          "internalType": "uint256",
          "name": "quanntity",
          "type": "uint256"
        },
        {
          "indexed": false,
          "internalType": "uint256",
          "name": "date",
          "type": "uint256"
        },
        {
          "indexed": true,
          "internalType": "address",
          "name": "indexedPurchased",
          "type": "address"
        }
      ],
      "name": "TicketPurchased",
      "type": "event"
    },
    {
      "anonymous": false,
      "inputs": [
        {
          "indexed": false,
          "internalType": "address",
          "name": "_event",
          "type": "address"
        },
        {
          "indexed": false,
          "internalType": "address",
          "name": "_requestedBy",
          "type": "address"
        },
        {
          "indexed": false,
          "internalType": "uint256",
          "name": "_ticketId",
          "type": "uint256"
        },
        {
          "indexed": false,
          "internalType": "uint256",
          "name": "_ticketPrice",
          "type": "uint256"
        }
      ],
      "name": "TicketRefended",
      "type": "event"
    },
    {
      "anonymous": false,
      "inputs": [
        {
          "indexed": false,
          "internalType": "address",
          "name": "_from",
          "type": "address"
        },
        {
          "indexed": false,
          "internalType": "address",
          "name": "_to",
          "type": "address"
        },
        {
          "indexed": false,
          "internalType": "uint256",
          "name": "_tokenId",
          "type": "uint256"
        }
      ],
      "name": "TicketTransfered",
      "type": "event"
    },
    {
      "anonymous": false,
      "inputs": [
        {
          "indexed": true,
          "internalType": "address",
          "name": "from",
          "type": "address"
        },
        {
          "indexed": true,
          "internalType": "address",
          "name": "to",
          "type": "address"
        },
        {
          "indexed": true,
          "internalType": "uint256",
          "name": "tokenId",
          "type": "uint256"
        }
      ],
      "name": "Transfer",
      "type": "event"
    },
    {
      "constant": false,
      "inputs": [
        {
          "internalType": "address",
          "name": "to",
          "type": "address"
        },
        {
          "internalType": "uint256",
          "name": "tokenId",
          "type": "uint256"
        }
      ],
      "name": "approve",
      "outputs": [],
      "payable": false,
      "stateMutability": "nonpayable",
      "type": "function"
    },
    {
      "constant": true,
      "inputs": [
        {
          "internalType": "address",
          "name": "owner",
          "type": "address"
        }
      ],
      "name": "balanceOf",
      "outputs": [
        {
          "internalType": "uint256",
          "name": "",
          "type": "uint256"
        }
      ],
      "payable": false,
      "stateMutability": "view",
      "type": "function"
    },
    {
      "constant": true,
      "inputs": [],
      "name": "event_description",
      "outputs": [
        {
          "internalType": "string",
          "name": "",
          "type": "string"
        }
      ],
      "payable": false,
      "stateMutability": "view",
      "type": "function"
    },
    {
      "constant": true,
      "inputs": [],
      "name": "event_start",
      "outputs": [
        {
          "internalType": "uint256",
          "name": "",
          "type": "uint256"
        }
      ],
      "payable": false,
      "stateMutability": "view",
      "type": "function"
    },
    {
      "constant": true,
      "inputs": [],
      "name": "event_title",
      "outputs": [
        {
          "internalType": "string",
          "name": "",
          "type": "string"
        }
      ],
      "payable": false,
      "stateMutability": "view",
      "type": "function"
    },
    {
      "constant": true,
      "inputs": [],
      "name": "event_website",
      "outputs": [
        {
          "internalType": "string",
          "name": "",
          "type": "string"
        }
      ],
      "payable": false,
      "stateMutability": "view",
      "type": "function"
    },
    {
      "constant": true,
      "inputs": [
        {
          "internalType": "uint256",
          "name": "tokenId",
          "type": "uint256"
        }
      ],
      "name": "getApproved",
      "outputs": [
        {
          "internalType": "address",
          "name": "",
          "type": "address"
        }
      ],
      "payable": false,
      "stateMutability": "view",
      "type": "function"
    },
    {
      "constant": true,
      "inputs": [],
      "name": "imageHash",
      "outputs": [
        {
          "internalType": "string",
          "name": "",
          "type": "string"
        }
      ],
      "payable": false,
      "stateMutability": "view",
      "type": "function"
    },
    {
      "constant": true,
      "inputs": [
        {
          "internalType": "address",
          "name": "owner",
          "type": "address"
        },
        {
          "internalType": "address",
          "name": "operator",
          "type": "address"
        }
      ],
      "name": "isApprovedForAll",
      "outputs": [
        {
          "internalType": "bool",
          "name": "",
          "type": "bool"
        }
      ],
      "payable": false,
      "stateMutability": "view",
      "type": "function"
    },
    {
      "constant": true,
      "inputs": [],
      "name": "name",
      "outputs": [
        {
          "internalType": "string",
          "name": "",
          "type": "string"
        }
      ],
      "payable": false,
      "stateMutability": "view",
      "type": "function"
    },
    {
      "constant": true,
      "inputs": [],
      "name": "number_tickets",
      "outputs": [
        {
          "internalType": "uint256",
          "name": "",
          "type": "uint256"
        }
      ],
      "payable": false,
      "stateMutability": "view",
      "type": "function"
    },
    {
      "constant": true,
      "inputs": [],
      "name": "organizer",
      "outputs": [
        {
          "internalType": "address payable",
          "name": "",
          "type": "address"
        }
      ],
      "payable": false,
      "stateMutability": "view",
      "type": "function"
    },
    {
      "constant": true,
      "inputs": [
        {
          "internalType": "uint256",
          "name": "tokenId",
          "type": "uint256"
        }
      ],
      "name": "ownerOf",
      "outputs": [
        {
          "internalType": "address",
          "name": "",
          "type": "address"
        }
      ],
      "payable": false,
      "stateMutability": "view",
      "type": "function"
    },
    {
      "constant": false,
      "inputs": [
        {
          "internalType": "address",
          "name": "from",
          "type": "address"
        },
        {
          "internalType": "address",
          "name": "to",
          "type": "address"
        },
        {
          "internalType": "uint256",
          "name": "tokenId",
          "type": "uint256"
        }
      ],
      "name": "safeTransferFrom",
      "outputs": [],
      "payable": false,
      "stateMutability": "nonpayable",
      "type": "function"
    },
    {
      "constant": false,
      "inputs": [
        {
          "internalType": "address",
          "name": "from",
          "type": "address"
        },
        {
          "internalType": "address",
          "name": "to",
          "type": "address"
        },
        {
          "internalType": "uint256",
          "name": "tokenId",
          "type": "uint256"
        },
        {
          "internalType": "bytes",
          "name": "_data",
          "type": "bytes"
        }
      ],
      "name": "safeTransferFrom",
      "outputs": [],
      "payable": false,
      "stateMutability": "nonpayable",
      "type": "function"
    },
    {
      "constant": false,
      "inputs": [
        {
          "internalType": "address",
          "name": "to",
          "type": "address"
        },
        {
          "internalType": "bool",
          "name": "approved",
          "type": "bool"
        }
      ],
      "name": "setApprovalForAll",
      "outputs": [],
      "payable": false,
      "stateMutability": "nonpayable",
      "type": "function"
    },
    {
      "constant": true,
      "inputs": [
        {
          "internalType": "bytes4",
          "name": "interfaceId",
          "type": "bytes4"
        }
      ],
      "name": "supportsInterface",
      "outputs": [
        {
          "internalType": "bool",
          "name": "",
          "type": "bool"
        }
      ],
      "payable": false,
      "stateMutability": "view",
      "type": "function"
    },
    {
      "constant": true,
      "inputs": [],
      "name": "symbol",
      "outputs": [
        {
          "internalType": "string",
          "name": "",
          "type": "string"
        }
      ],
      "payable": false,
      "stateMutability": "view",
      "type": "function"
    },
    {
      "constant": true,
      "inputs": [],
      "name": "ticket_price",
      "outputs": [
        {
          "internalType": "uint256",
          "name": "",
          "type": "uint256"
        }
      ],
      "payable": false,
      "stateMutability": "view",
      "type": "function"
    },
    {
      "constant": true,
      "inputs": [
        {
          "internalType": "uint256",
          "name": "index",
          "type": "uint256"
        }
      ],
      "name": "tokenByIndex",
      "outputs": [
        {
          "internalType": "uint256",
          "name": "",
          "type": "uint256"
        }
      ],
      "payable": false,
      "stateMutability": "view",
      "type": "function"
    },
    {
      "constant": true,
      "inputs": [
        {
          "internalType": "address",
          "name": "owner",
          "type": "address"
        },
        {
          "internalType": "uint256",
          "name": "index",
          "type": "uint256"
        }
      ],
      "name": "tokenOfOwnerByIndex",
      "outputs": [
        {
          "internalType": "uint256",
          "name": "",
          "type": "uint256"
        }
      ],
      "payable": false,
      "stateMutability": "view",
      "type": "function"
    },
    {
      "constant": true,
      "inputs": [
        {
          "internalType": "uint256",
          "name": "tokenId",
          "type": "uint256"
        }
      ],
      "name": "tokenURI",
      "outputs": [
        {
          "internalType": "string",
          "name": "",
          "type": "string"
        }
      ],
      "payable": false,
      "stateMutability": "view",
      "type": "function"
    },
    {
      "constant": true,
      "inputs": [],
      "name": "totalSupply",
      "outputs": [
        {
          "internalType": "uint256",
          "name": "",
          "type": "uint256"
        }
      ],
      "payable": false,
      "stateMutability": "view",
      "type": "function"
    },
    {
      "constant": false,
      "inputs": [
        {
          "internalType": "address",
          "name": "from",
          "type": "address"
        },
        {
          "internalType": "address",
          "name": "to",
          "type": "address"
        },
        {
          "internalType": "uint256",
          "name": "tokenId",
          "type": "uint256"
        }
      ],
      "name": "transferFrom",
      "outputs": [],
      "payable": false,
      "stateMutability": "nonpayable",
      "type": "function"
    },
    {
      "constant": false,
      "inputs": [
        {
          "internalType": "uint256",
          "name": "quantity",
          "type": "uint256"
        }
      ],
      "name": "purchaseTicket",
      "outputs": [],
      "payable": true,
      "stateMutability": "payable",
      "type": "function"
    },
    {
      "constant": false,
      "inputs": [
        {
          "internalType": "string",
          "name": "_imageHash",
          "type": "string"
        }
      ],
      "name": "setImage",
      "outputs": [],
      "payable": false,
      "stateMutability": "nonpayable",
      "type": "function"
    },
    {
      "constant": false,
      "inputs": [
        {
          "internalType": "address",
          "name": "_to",
          "type": "address"
        },
        {
          "internalType": "uint256",
          "name": "_tokenId",
          "type": "uint256"
        }
      ],
      "name": "transferTicket",
      "outputs": [],
      "payable": false,
      "stateMutability": "nonpayable",
      "type": "function"
    },
    {
      "constant": false,
      "inputs": [
        {
          "internalType": "address",
          "name": "_owner",
          "type": "address"
        },
        {
          "internalType": "uint256",
          "name": "_tokenId",
          "type": "uint256"
        }
      ],
      "name": "isTicketValid",
      "outputs": [
        {
          "internalType": "bool",
          "name": "",
          "type": "bool"
        }
      ],
      "payable": false,
      "stateMutability": "nonpayable",
      "type": "function"
    },
    {
      "constant": false,
      "inputs": [],
      "name": "cancelEvent",
      "outputs": [],
      "payable": false,
      "stateMutability": "nonpayable",
      "type": "function"
    },
    {
      "constant": true,
      "inputs": [
        {
          "internalType": "address",
          "name": "_owner",
          "type": "address"
        }
      ],
      "name": "getOwnersTicket",
      "outputs": [
        {
          "internalType": "uint256[]",
          "name": "",
          "type": "uint256[]"
        }
      ],
      "payable": false,
      "stateMutability": "view",
      "type": "function"
    },
    {
      "constant": false,
      "inputs": [],
      "name": "collectPayment",
      "outputs": [],
      "payable": false,
      "stateMutability": "nonpayable",
      "type": "function"
    },
    {
      "constant": false,
      "inputs": [
        {
          "internalType": "uint256",
          "name": "ticket",
          "type": "uint256"
        }
      ],
      "name": "getRefund",
      "outputs": [],
      "payable": false,
      "stateMutability": "nonpayable",
      "type": "function"
    },
    {
      "constant": true,
      "inputs": [],
      "name": "isCanceled",
      "outputs": [
        {
          "internalType": "bool",
          "name": "",
          "type": "bool"
        }
      ],
      "payable": false,
      "stateMutability": "view",
      "type": "function"
    }
  ],
  "bytecode": "0x60806040523480156200001157600080fd5b506040516200406438038062004064833981810160405260e08110156200003757600080fd5b8101908080519060200190929190805160405193929190846401000000008211156200006257600080fd5b838201915060208201858111156200007957600080fd5b82518660018202830111640100000000821117156200009757600080fd5b8083526020830192505050908051906020019080838360005b83811015620000cd578082015181840152602081019050620000b0565b50505050905090810190601f168015620000fb5780820380516001836020036101000a031916815260200191505b50604052602001805160405193929190846401000000008211156200011f57600080fd5b838201915060208201858111156200013657600080fd5b82518660018202830111640100000000821117156200015457600080fd5b8083526020830192505050908051906020019080838360005b838110156200018a5780820151818401526020810190506200016d565b50505050905090810190601f168015620001b85780820380516001836020036101000a031916815260200191505b5060405260200180516040519392919084640100000000821115620001dc57600080fd5b83820191506020820185811115620001f357600080fd5b82518660018202830111640100000000821117156200021157600080fd5b8083526020830192505050908051906020019080838360005b83811015620002475780820151818401526020810190506200022a565b50505050905090810190601f168015620002755780820380516001836020036101000a031916815260200191505b50604052602001805190602001909291908051906020019092919080519060200190929190505050856040518060400160405280600381526020017f544b5400000000000000000000000000000000000000000000000000000000008152508181620002ee6301ffc9a760e01b6200041a60201b60201c565b620003066380ac58cd60e01b6200041a60201b60201c565b6200031e63780e9d6360e01b6200041a60201b60201c565b81600990805190602001906200033692919062000523565b5080600a90805190602001906200034f92919062000523565b5062000368635b5e139f60e01b6200041a60201b60201c565b5050505085600c90805190602001906200038492919062000523565b5084600f90805190602001906200039d92919062000523565b508360109080519060200190620003b692919062000523565b5082600d81905550816013819055508060148190555086601560006101000a81548173ffffffffffffffffffffffffffffffffffffffff021916908373ffffffffffffffffffffffffffffffffffffffff16021790555050505050505050620005d2565b63ffffffff60e01b817bffffffffffffffffffffffffffffffffffffffffffffffffffffffff19161415620004b7576040517f08c379a000000000000000000000000000000000000000000000000000000000815260040180806020018281038252601c8152602001807f4552433136353a20696e76616c696420696e746572666163652069640000000081525060200191505060405180910390fd5b6001600080837bffffffffffffffffffffffffffffffffffffffffffffffffffffffff19167bffffffffffffffffffffffffffffffffffffffffffffffffffffffff1916815260200190815260200160002060006101000a81548160ff02191690831515021790555050565b828054600181600116156101000203166002900490600052602060002090601f016020900481019282601f106200056657805160ff191683800117855562000597565b8280016001018555821562000597579182015b828111156200059657825182559160200191906001019062000579565b5b509050620005a69190620005aa565b5090565b620005cf91905b80821115620005cb576000816000905550600101620005b1565b5090565b90565b613a8280620005e26000396000f3fe6080604052600436106101ee5760003560e01c80635cc08cec1161010d5780639bab49f8116100a0578063c87b56dd1161006f578063c87b56dd14610dc1578063d2f0be9914610e75578063d9907e7814610eb0578063e985e9c514610f40578063fb6c953714610fc9576101ee565b80639bab49f814610b94578063a22cb46514610c24578063b88d4fde14610c81578063b948348c14610d93576101ee565b806370a08231116100dc57806370a082311461094757806371adb5e6146109ac5780639142ae3f14610a7457806395d89b4114610b04576101ee565b80635cc08cec1461075c5780635d036d1a1461080257806361203265146108755780636352211e146108cc576101ee565b80631e638f2e1161018557806342842e0e1161015457806342842e0e146105a75780634f6ccce71461062257806351605d801461067157806351958a5614610701576101ee565b80631e638f2e1461047b57806323b872dd146104925780632f745c591461050d5780633bf974881461057c576101ee565b80630ed5a933116101c15780630ed5a933146103cb57806318160ddd146103fa57806319d41c69146104255780631de4b06914610450576101ee565b806301ffc9a7146101f357806306fdde0314610265578063081812fc146102f5578063095ea7b314610370575b600080fd5b3480156101ff57600080fd5b5061024b6004803603602081101561021657600080fd5b8101908080357bffffffffffffffffffffffffffffffffffffffffffffffffffffffff19169060200190929190505050610fe0565b604051808215151515815260200191505060405180910390f35b34801561027157600080fd5b5061027a611047565b6040518080602001828103825283818151815260200191508051906020019080838360005b838110156102ba57808201518184015260208101905061029f565b50505050905090810190601f1680156102e75780820380516001836020036101000a031916815260200191505b509250505060405180910390f35b34801561030157600080fd5b5061032e6004803603602081101561031857600080fd5b81019080803590602001909291905050506110e9565b604051808273ffffffffffffffffffffffffffffffffffffffff1673ffffffffffffffffffffffffffffffffffffffff16815260200191505060405180910390f35b34801561037c57600080fd5b506103c96004803603604081101561039357600080fd5b81019080803573ffffffffffffffffffffffffffffffffffffffff16906020019092919080359060200190929190505050611184565b005b3480156103d757600080fd5b506103e061135d565b604051808215151515815260200191505060405180910390f35b34801561040657600080fd5b5061040f611374565b6040518082815260200191505060405180910390f35b34801561043157600080fd5b5061043a611381565b6040518082815260200191505060405180910390f35b34801561045c57600080fd5b50610465611387565b6040518082815260200191505060405180910390f35b34801561048757600080fd5b5061049061138d565b005b34801561049e57600080fd5b5061050b600480360360608110156104b557600080fd5b81019080803573ffffffffffffffffffffffffffffffffffffffff169060200190929190803573ffffffffffffffffffffffffffffffffffffffff1690602001909291908035906020019092919050505061144c565b005b34801561051957600080fd5b506105666004803603604081101561053057600080fd5b81019080803573ffffffffffffffffffffffffffffffffffffffff169060200190929190803590602001909291905050506114bb565b6040518082815260200191505060405180910390f35b34801561058857600080fd5b5061059161157a565b6040518082815260200191505060405180910390f35b3480156105b357600080fd5b50610620600480360360608110156105ca57600080fd5b81019080803573ffffffffffffffffffffffffffffffffffffffff169060200190929190803573ffffffffffffffffffffffffffffffffffffffff16906020019092919080359060200190929190505050611580565b005b34801561062e57600080fd5b5061065b6004803603602081101561064557600080fd5b81019080803590602001909291905050506115a0565b6040518082815260200191505060405180910390f35b34801561067d57600080fd5b50610686611620565b6040518080602001828103825283818151815260200191508051906020019080838360005b838110156106c65780820151818401526020810190506106ab565b50505050905090810190601f1680156106f35780820380516001836020036101000a031916815260200191505b509250505060405180910390f35b34801561070d57600080fd5b5061075a6004803603604081101561072457600080fd5b81019080803573ffffffffffffffffffffffffffffffffffffffff169060200190929190803590602001909291905050506116be565b005b34801561076857600080fd5b506107ab6004803603602081101561077f57600080fd5b81019080803573ffffffffffffffffffffffffffffffffffffffff16906020019092919050505061180f565b6040518080602001828103825283818151815260200191508051906020019060200280838360005b838110156107ee5780820151818401526020810190506107d3565b505050509050019250505060405180910390f35b34801561080e57600080fd5b5061085b6004803603604081101561082557600080fd5b81019080803573ffffffffffffffffffffffffffffffffffffffff16906020019092919080359060200190929190505050611870565b604051808215151515815260200191505060405180910390f35b34801561088157600080fd5b5061088a611971565b604051808273ffffffffffffffffffffffffffffffffffffffff1673ffffffffffffffffffffffffffffffffffffffff16815260200191505060405180910390f35b3480156108d857600080fd5b50610905600480360360208110156108ef57600080fd5b8101908080359060200190929190505050611997565b604051808273ffffffffffffffffffffffffffffffffffffffff1673ffffffffffffffffffffffffffffffffffffffff16815260200191505060405180910390f35b34801561095357600080fd5b506109966004803603602081101561096a57600080fd5b81019080803573ffffffffffffffffffffffffffffffffffffffff169060200190929190505050611a5f565b6040518082815260200191505060405180910390f35b3480156109b857600080fd5b50610a72600480360360208110156109cf57600080fd5b81019080803590602001906401000000008111156109ec57600080fd5b8201836020820111156109fe57600080fd5b80359060200191846001830284011164010000000083111715610a2057600080fd5b91908080601f016020809104026020016040519081016040528093929190818152602001838380828437600081840152601f19601f820116905080830192505050505050509192919290505050611b34565b005b348015610a8057600080fd5b50610a89611b4e565b6040518080602001828103825283818151815260200191508051906020019080838360005b83811015610ac9578082015181840152602081019050610aae565b50505050905090810190601f168015610af65780820380516001836020036101000a031916815260200191505b509250505060405180910390f35b348015610b1057600080fd5b50610b19611bec565b6040518080602001828103825283818151815260200191508051906020019080838360005b83811015610b59578082015181840152602081019050610b3e565b50505050905090810190601f168015610b865780820380516001836020036101000a031916815260200191505b509250505060405180910390f35b348015610ba057600080fd5b50610ba9611c8e565b6040518080602001828103825283818151815260200191508051906020019080838360005b83811015610be9578082015181840152602081019050610bce565b50505050905090810190601f168015610c165780820380516001836020036101000a031916815260200191505b509250505060405180910390f35b348015610c3057600080fd5b50610c7f60048036036040811015610c4757600080fd5b81019080803573ffffffffffffffffffffffffffffffffffffffff169060200190929190803515159060200190929190505050611d2c565b005b348015610c8d57600080fd5b50610d9160048036036080811015610ca457600080fd5b81019080803573ffffffffffffffffffffffffffffffffffffffff169060200190929190803573ffffffffffffffffffffffffffffffffffffffff1690602001909291908035906020019092919080359060200190640100000000811115610d0b57600080fd5b820183602082011115610d1d57600080fd5b80359060200191846001830284011164010000000083111715610d3f57600080fd5b91908080601f016020809104026020016040519081016040528093929190818152602001838380828437600081840152601f19601f820116905080830192505050505050509192919290505050611ecf565b005b610dbf60048036036020811015610da957600080fd5b8101908080359060200190929190505050611f41565b005b348015610dcd57600080fd5b50610dfa60048036036020811015610de457600080fd5b8101908080359060200190929190505050612103565b6040518080602001828103825283818151815260200191508051906020019080838360005b83811015610e3a578082015181840152602081019050610e1f565b50505050905090810190601f168015610e675780820380516001836020036101000a031916815260200191505b509250505060405180910390f35b348015610e8157600080fd5b50610eae60048036036020811015610e9857600080fd5b8101908080359060200190929190505050612216565b005b348015610ebc57600080fd5b50610ec561241c565b6040518080602001828103825283818151815260200191508051906020019080838360005b83811015610f05578082015181840152602081019050610eea565b50505050905090810190601f168015610f325780820380516001836020036101000a031916815260200191505b509250505060405180910390f35b348015610f4c57600080fd5b50610faf60048036036040811015610f6357600080fd5b81019080803573ffffffffffffffffffffffffffffffffffffffff169060200190929190803573ffffffffffffffffffffffffffffffffffffffff1690602001909291905050506124ba565b604051808215151515815260200191505060405180910390f35b348015610fd557600080fd5b50610fde61254e565b005b6000806000837bffffffffffffffffffffffffffffffffffffffffffffffffffffffff19167bffffffffffffffffffffffffffffffffffffffffffffffffffffffff1916815260200190815260200160002060009054906101000a900460ff169050919050565b606060098054600181600116156101000203166002900480601f0160208091040260200160405190810160405280929190818152602001828054600181600116156101000203166002900480156110df5780601f106110b4576101008083540402835291602001916110df565b820191906000526020600020905b8154815290600101906020018083116110c257829003601f168201915b5050505050905090565b60006110f482612611565b611149576040517f08c379a000000000000000000000000000000000000000000000000000000000815260040180806020018281038252602c8152602001806138f9602c913960400191505060405180910390fd5b6002600083815260200190815260200160002060009054906101000a900473ffffffffffffffffffffffffffffffffffffffff169050919050565b600061118f82611997565b90508073ffffffffffffffffffffffffffffffffffffffff168373ffffffffffffffffffffffffffffffffffffffff161415611216576040517f08c379a00000000000000000000000000000000000000000000000000000000081526004018080602001828103825260218152602001806139ab6021913960400191505060405180910390fd5b8073ffffffffffffffffffffffffffffffffffffffff163373ffffffffffffffffffffffffffffffffffffffff161480611256575061125581336124ba565b5b6112ab576040517f08c379a000000000000000000000000000000000000000000000000000000000815260040180806020018281038252603881526020018061384d6038913960400191505060405180910390fd5b826002600084815260200190815260200160002060006101000a81548173ffffffffffffffffffffffffffffffffffffffff021916908373ffffffffffffffffffffffffffffffffffffffff160217905550818373ffffffffffffffffffffffffffffffffffffffff168273ffffffffffffffffffffffffffffffffffffffff167f8c5be1e5ebec7d5bd14f71427d1e84f3dd0314c0f7b2291e5b200ac8c7c3b92560405160405180910390a4505050565b6000601260009054906101000a900460ff16905090565b6000600780549050905090565b60135481565b60145481565b601560009054906101000a900473ffffffffffffffffffffffffffffffffffffffff1673ffffffffffffffffffffffffffffffffffffffff163373ffffffffffffffffffffffffffffffffffffffff1614611433576040517f08c379a000000000000000000000000000000000000000000000000000000000815260040180806020018281038252603281526020018061381b6032913960400191505060405180910390fd5b3373ffffffffffffffffffffffffffffffffffffffff16ff5b6114563382612683565b6114ab576040517f08c379a00000000000000000000000000000000000000000000000000000000081526004018080602001828103825260318152602001806139cc6031913960400191505060405180910390fd5b6114b6838383612777565b505050565b60006114c683611a5f565b821061151d576040517f08c379a000000000000000000000000000000000000000000000000000000000815260040180806020018281038252602b81526020018061376e602b913960400191505060405180910390fd5b600560008473ffffffffffffffffffffffffffffffffffffffff1673ffffffffffffffffffffffffffffffffffffffff168152602001908152602001600020828154811061156757fe5b9060005260206000200154905092915050565b600d5481565b61159b83838360405180602001604052806000815250611ecf565b505050565b60006115aa611374565b8210611601576040517f08c379a000000000000000000000000000000000000000000000000000000000815260040180806020018281038252602c8152602001806139fd602c913960400191505060405180910390fd5b6007828154811061160e57fe5b90600052602060002001549050919050565b60118054600181600116156101000203166002900480601f0160208091040260200160405190810160405280929190818152602001828054600181600116156101000203166002900480156116b65780601f1061168b576101008083540402835291602001916116b6565b820191906000526020600020905b81548152906001019060200180831161169957829003601f168201915b505050505081565b8173ffffffffffffffffffffffffffffffffffffffff16600073ffffffffffffffffffffffffffffffffffffffff161415611761576040517f08c379a00000000000000000000000000000000000000000000000000000000081526004018080602001828103825260188152602001807f696e76616c696420616464726573732070726f7669646564000000000000000081525060200191505060405180910390fd5b61176c33838361144c565b7fd44fac1f5dbf8e8674ffb02fd7846c7b6771f2d2a311ae9d2ee52958e69ea5fe338383604051808473ffffffffffffffffffffffffffffffffffffffff1673ffffffffffffffffffffffffffffffffffffffff1681526020018373ffffffffffffffffffffffffffffffffffffffff1673ffffffffffffffffffffffffffffffffffffffff168152602001828152602001935050505060405180910390a15050565b606061181a8261279b565b80548060200260200160405190810160405280929190818152602001828054801561186457602002820191906000526020600020905b815481526020019060010190808311611850575b50505050509050919050565b6000601560009054906101000a900473ffffffffffffffffffffffffffffffffffffffff1673ffffffffffffffffffffffffffffffffffffffff163373ffffffffffffffffffffffffffffffffffffffff1614611918576040517f08c379a000000000000000000000000000000000000000000000000000000000815260040180806020018281038252603281526020018061381b6032913960400191505060405180910390fd5b8273ffffffffffffffffffffffffffffffffffffffff1661193883611997565b73ffffffffffffffffffffffffffffffffffffffff1614156119665761195d826127e3565b6001905061196b565b600090505b92915050565b601560009054906101000a900473ffffffffffffffffffffffffffffffffffffffff1681565b6000806001600084815260200190815260200160002060009054906101000a900473ffffffffffffffffffffffffffffffffffffffff169050600073ffffffffffffffffffffffffffffffffffffffff168173ffffffffffffffffffffffffffffffffffffffff161415611a56576040517f08c379a00000000000000000000000000000000000000000000000000000000081526004018080602001828103825260298152602001806138af6029913960400191505060405180910390fd5b80915050919050565b60008073ffffffffffffffffffffffffffffffffffffffff168273ffffffffffffffffffffffffffffffffffffffff161415611ae6576040517f08c379a000000000000000000000000000000000000000000000000000000000815260040180806020018281038252602a815260200180613885602a913960400191505060405180910390fd5b611b2d600360008473ffffffffffffffffffffffffffffffffffffffff1673ffffffffffffffffffffffffffffffffffffffff1681526020019081526020016000206127f8565b9050919050565b8060119080519060200190611b4a92919061362d565b5050565b60108054600181600116156101000203166002900480601f016020809104026020016040519081016040528092919081815260200182805460018160011615610100020316600290048015611be45780601f10611bb957610100808354040283529160200191611be4565b820191906000526020600020905b815481529060010190602001808311611bc757829003601f168201915b505050505081565b6060600a8054600181600116156101000203166002900480601f016020809104026020016040519081016040528092919081815260200182805460018160011615610100020316600290048015611c845780601f10611c5957610100808354040283529160200191611c84565b820191906000526020600020905b815481529060010190602001808311611c6757829003601f168201915b5050505050905090565b600f8054600181600116156101000203166002900480601f016020809104026020016040519081016040528092919081815260200182805460018160011615610100020316600290048015611d245780601f10611cf957610100808354040283529160200191611d24565b820191906000526020600020905b815481529060010190602001808311611d0757829003601f168201915b505050505081565b3373ffffffffffffffffffffffffffffffffffffffff168273ffffffffffffffffffffffffffffffffffffffff161415611dce576040517f08c379a00000000000000000000000000000000000000000000000000000000081526004018080602001828103825260198152602001807f4552433732313a20617070726f766520746f2063616c6c65720000000000000081525060200191505060405180910390fd5b80600460003373ffffffffffffffffffffffffffffffffffffffff1673ffffffffffffffffffffffffffffffffffffffff16815260200190815260200160002060008473ffffffffffffffffffffffffffffffffffffffff1673ffffffffffffffffffffffffffffffffffffffff16815260200190815260200160002060006101000a81548160ff0219169083151502179055508173ffffffffffffffffffffffffffffffffffffffff163373ffffffffffffffffffffffffffffffffffffffff167f17307eab39ab6107e8899845ad3d59bd9653f200f220920489ca2b5937696c3183604051808215151515815260200191505060405180910390a35050565b611eda84848461144c565b611ee684848484612806565b611f3b576040517f08c379a00000000000000000000000000000000000000000000000000000000081526004018080602001828103825260328152602001806137996032913960400191505060405180910390fd5b50505050565b806014541015611f9c576040517f08c379a00000000000000000000000000000000000000000000000000000000081526004018080602001828103825260278152602001806137476027913960400191505060405180910390fd5b611fb1816013546129ef90919063ffffffff16565b341015612026576040517f08c379a00000000000000000000000000000000000000000000000000000000081526004018080602001828103825260158152602001807f6e6f7420656e6f756768206d6f6e65792073656e74000000000000000000000081525060200191505060405180910390fd5b60008090505b818160ff16101561207557600e600081548092919060010191905055506014600081548092919060019003919050555061206833600e54612a75565b808060010191505061202c565b503373ffffffffffffffffffffffffffffffffffffffff167f4cf695110eb016237150bbbf930c9f2377261d25c912abc9aaf6ae0834ddd3cb338342604051808473ffffffffffffffffffffffffffffffffffffffff1673ffffffffffffffffffffffffffffffffffffffff168152602001838152602001828152602001935050505060405180910390a250565b606061210e82612611565b612163576040517f08c379a000000000000000000000000000000000000000000000000000000000815260040180806020018281038252602f81526020018061397c602f913960400191505060405180910390fd5b600b60008381526020019081526020016000208054600181600116156101000203166002900480601f01602080910402602001604051908101604052809291908181526020018280546001816001161561010002031660029004801561220a5780601f106121df5761010080835404028352916020019161220a565b820191906000526020600020905b8154815290600101906020018083116121ed57829003601f168201915b50505050509050919050565b3373ffffffffffffffffffffffffffffffffffffffff16600073ffffffffffffffffffffffffffffffffffffffff1614156122b9576040517f08c379a00000000000000000000000000000000000000000000000000000000081526004018080602001828103825260188152602001807f696e76616c696420616464726573732070726f7669646564000000000000000081525060200191505060405180910390fd5b601260009054906101000a900460ff1661231e576040517f08c379a000000000000000000000000000000000000000000000000000000000815260040180806020018281038252602e81526020018061394e602e913960400191505060405180910390fd5b612327816127e3565b3373ffffffffffffffffffffffffffffffffffffffff166108fc6013549081150290604051600060405180830381858888f1935050505015801561236f573d6000803e3d6000fd5b507f34ea30b622454ede1d09bad7594804f299c83c669a09b435992ff93cf9ad9804303383601354604051808573ffffffffffffffffffffffffffffffffffffffff1673ffffffffffffffffffffffffffffffffffffffff1681526020018473ffffffffffffffffffffffffffffffffffffffff1673ffffffffffffffffffffffffffffffffffffffff16815260200183815260200182815260200194505050505060405180910390a150565b600c8054600181600116156101000203166002900480601f0160208091040260200160405190810160405280929190818152602001828054600181600116156101000203166002900480156124b25780601f10612487576101008083540402835291602001916124b2565b820191906000526020600020905b81548152906001019060200180831161249557829003601f168201915b505050505081565b6000600460008473ffffffffffffffffffffffffffffffffffffffff1673ffffffffffffffffffffffffffffffffffffffff16815260200190815260200160002060008373ffffffffffffffffffffffffffffffffffffffff1673ffffffffffffffffffffffffffffffffffffffff16815260200190815260200160002060009054906101000a900460ff16905092915050565b601560009054906101000a900473ffffffffffffffffffffffffffffffffffffffff1673ffffffffffffffffffffffffffffffffffffffff163373ffffffffffffffffffffffffffffffffffffffff16146125f4576040517f08c379a000000000000000000000000000000000000000000000000000000000815260040180806020018281038252603281526020018061381b6032913960400191505060405180910390fd5b6001601260006101000a81548160ff021916908315150217905550565b6000806001600084815260200190815260200160002060009054906101000a900473ffffffffffffffffffffffffffffffffffffffff169050600073ffffffffffffffffffffffffffffffffffffffff168173ffffffffffffffffffffffffffffffffffffffff161415915050919050565b600061268e82612611565b6126e3576040517f08c379a000000000000000000000000000000000000000000000000000000000815260040180806020018281038252602c8152602001806137ef602c913960400191505060405180910390fd5b60006126ee83611997565b90508073ffffffffffffffffffffffffffffffffffffffff168473ffffffffffffffffffffffffffffffffffffffff16148061275d57508373ffffffffffffffffffffffffffffffffffffffff16612745846110e9565b73ffffffffffffffffffffffffffffffffffffffff16145b8061276e575061276d81856124ba565b5b91505092915050565b612782838383612a96565b61278c8382612cf1565b6127968282612e8f565b505050565b6000600560008373ffffffffffffffffffffffffffffffffffffffff1673ffffffffffffffffffffffffffffffffffffffff1681526020019081526020016000209050919050565b6127f56127ef82611997565b82612f56565b50565b600081600001549050919050565b60006128278473ffffffffffffffffffffffffffffffffffffffff16612fb3565b61283457600190506129e7565b60008473ffffffffffffffffffffffffffffffffffffffff1663150b7a02338887876040518563ffffffff1660e01b8152600401808573ffffffffffffffffffffffffffffffffffffffff1673ffffffffffffffffffffffffffffffffffffffff1681526020018473ffffffffffffffffffffffffffffffffffffffff1673ffffffffffffffffffffffffffffffffffffffff16815260200183815260200180602001828103825283818151815260200191508051906020019080838360005b8381101561290f5780820151818401526020810190506128f4565b50505050905090810190601f16801561293c5780820380516001836020036101000a031916815260200191505b5095505050505050602060405180830381600087803b15801561295e57600080fd5b505af1158015612972573d6000803e3d6000fd5b505050506040513d602081101561298857600080fd5b8101908080519060200190929190505050905063150b7a0260e01b7bffffffffffffffffffffffffffffffffffffffffffffffffffffffff1916817bffffffffffffffffffffffffffffffffffffffffffffffffffffffff1916149150505b949350505050565b600080831415612a025760009050612a6f565b6000828402905082848281612a1357fe5b0414612a6a576040517f08c379a00000000000000000000000000000000000000000000000000000000081526004018080602001828103825260218152602001806138d86021913960400191505060405180910390fd5b809150505b92915050565b612a7f8282612fc6565b612a898282612e8f565b612a92816131de565b5050565b8273ffffffffffffffffffffffffffffffffffffffff16612ab682611997565b73ffffffffffffffffffffffffffffffffffffffff1614612b22576040517f08c379a00000000000000000000000000000000000000000000000000000000081526004018080602001828103825260298152602001806139256029913960400191505060405180910390fd5b600073ffffffffffffffffffffffffffffffffffffffff168273ffffffffffffffffffffffffffffffffffffffff161415612ba8576040517f08c379a00000000000000000000000000000000000000000000000000000000081526004018080602001828103825260248152602001806137cb6024913960400191505060405180910390fd5b612bb18161322a565b612bf8600360008573ffffffffffffffffffffffffffffffffffffffff1673ffffffffffffffffffffffffffffffffffffffff1681526020019081526020016000206132e8565b612c3f600360008473ffffffffffffffffffffffffffffffffffffffff1673ffffffffffffffffffffffffffffffffffffffff16815260200190815260200160002061330b565b816001600083815260200190815260200160002060006101000a81548173ffffffffffffffffffffffffffffffffffffffff021916908373ffffffffffffffffffffffffffffffffffffffff160217905550808273ffffffffffffffffffffffffffffffffffffffff168473ffffffffffffffffffffffffffffffffffffffff167fddf252ad1be2c89b69c2b068fc378daa952ba7f163c4a11628f55a4df523b3ef60405160405180910390a4505050565b6000612d496001600560008673ffffffffffffffffffffffffffffffffffffffff1673ffffffffffffffffffffffffffffffffffffffff1681526020019081526020016000208054905061332190919063ffffffff16565b9050600060066000848152602001908152602001600020549050818114612e36576000600560008673ffffffffffffffffffffffffffffffffffffffff1673ffffffffffffffffffffffffffffffffffffffff1681526020019081526020016000208381548110612db657fe5b9060005260206000200154905080600560008773ffffffffffffffffffffffffffffffffffffffff1673ffffffffffffffffffffffffffffffffffffffff1681526020019081526020016000208381548110612e0e57fe5b9060005260206000200181905550816006600083815260200190815260200160002081905550505b600560008573ffffffffffffffffffffffffffffffffffffffff1673ffffffffffffffffffffffffffffffffffffffff168152602001908152602001600020805480919060019003612e8891906136ad565b5050505050565b600560008373ffffffffffffffffffffffffffffffffffffffff1673ffffffffffffffffffffffffffffffffffffffff168152602001908152602001600020805490506006600083815260200190815260200160002081905550600560008373ffffffffffffffffffffffffffffffffffffffff1673ffffffffffffffffffffffffffffffffffffffff1681526020019081526020016000208190806001815401808255809150509060018203906000526020600020016000909192909190915055505050565b612f6082826133aa565b6000600b600083815260200190815260200160002080546001816001161561010002031660029004905014612faf57600b60008281526020019081526020016000206000612fae91906136d9565b5b5050565b600080823b905060008111915050919050565b600073ffffffffffffffffffffffffffffffffffffffff168273ffffffffffffffffffffffffffffffffffffffff161415613069576040517f08c379a00000000000000000000000000000000000000000000000000000000081526004018080602001828103825260208152602001807f4552433732313a206d696e7420746f20746865207a65726f206164647265737381525060200191505060405180910390fd5b61307281612611565b156130e5576040517f08c379a000000000000000000000000000000000000000000000000000000000815260040180806020018281038252601c8152602001807f4552433732313a20746f6b656e20616c7265616479206d696e7465640000000081525060200191505060405180910390fd5b816001600083815260200190815260200160002060006101000a81548173ffffffffffffffffffffffffffffffffffffffff021916908373ffffffffffffffffffffffffffffffffffffffff16021790555061317e600360008473ffffffffffffffffffffffffffffffffffffffff1673ffffffffffffffffffffffffffffffffffffffff16815260200190815260200160002061330b565b808273ffffffffffffffffffffffffffffffffffffffff16600073ffffffffffffffffffffffffffffffffffffffff167fddf252ad1be2c89b69c2b068fc378daa952ba7f163c4a11628f55a4df523b3ef60405160405180910390a45050565b6007805490506008600083815260200190815260200160002081905550600781908060018154018082558091505090600182039060005260206000200160009091929091909150555050565b600073ffffffffffffffffffffffffffffffffffffffff166002600083815260200190815260200160002060009054906101000a900473ffffffffffffffffffffffffffffffffffffffff1673ffffffffffffffffffffffffffffffffffffffff16146132e55760006002600083815260200190815260200160002060006101000a81548173ffffffffffffffffffffffffffffffffffffffff021916908373ffffffffffffffffffffffffffffffffffffffff1602179055505b50565b6133006001826000015461332190919063ffffffff16565b816000018190555050565b6001816000016000828254019250508190555050565b600082821115613399576040517f08c379a000000000000000000000000000000000000000000000000000000000815260040180806020018281038252601e8152602001807f536166654d6174683a207375627472616374696f6e206f766572666c6f77000081525060200191505060405180910390fd5b600082840390508091505092915050565b6133b482826133e4565b6133be8282612cf1565b600060066000838152602001908152602001600020819055506133e081613573565b5050565b8173ffffffffffffffffffffffffffffffffffffffff1661340482611997565b73ffffffffffffffffffffffffffffffffffffffff1614613470576040517f08c379a0000000000000000000000000000000000000000000000000000000008152600401808060200182810382526025815260200180613a296025913960400191505060405180910390fd5b6134798161322a565b6134c0600360008473ffffffffffffffffffffffffffffffffffffffff1673ffffffffffffffffffffffffffffffffffffffff1681526020019081526020016000206132e8565b60006001600083815260200190815260200160002060006101000a81548173ffffffffffffffffffffffffffffffffffffffff021916908373ffffffffffffffffffffffffffffffffffffffff16021790555080600073ffffffffffffffffffffffffffffffffffffffff168373ffffffffffffffffffffffffffffffffffffffff167fddf252ad1be2c89b69c2b068fc378daa952ba7f163c4a11628f55a4df523b3ef60405160405180910390a45050565b600061358e600160078054905061332190919063ffffffff16565b90506000600860008481526020019081526020016000205490506000600783815481106135b757fe5b9060005260206000200154905080600783815481106135d257fe5b9060005260206000200181905550816008600083815260200190815260200160002081905550600780548091906001900361360d91906136ad565b506000600860008681526020019081526020016000208190555050505050565b828054600181600116156101000203166002900490600052602060002090601f016020900481019282601f1061366e57805160ff191683800117855561369c565b8280016001018555821561369c579182015b8281111561369b578251825591602001919060010190613680565b5b5090506136a99190613721565b5090565b8154818355818111156136d4578183600052602060002091820191016136d39190613721565b5b505050565b50805460018160011615610100020316600290046000825580601f106136ff575061371e565b601f01602090049060005260206000209081019061371d9190613721565b5b50565b61374391905b8082111561373f576000816000905550600101613727565b5090565b9056fe6e6f7420656e6f756768207469636b6574207175616e7469747920617661696c61626c65212121455243373231456e756d657261626c653a206f776e657220696e646578206f7574206f6620626f756e64734552433732313a207472616e7366657220746f206e6f6e20455243373231526563656976657220696d706c656d656e7465724552433732313a207472616e7366657220746f20746865207a65726f20616464726573734552433732313a206f70657261746f7220717565727920666f72206e6f6e6578697374656e7420746f6b656e6f6e6c79206576656e74206f776e657220697320616c6c6f77656420746f20706572666f726d207468697320616374696f6e4552433732313a20617070726f76652063616c6c6572206973206e6f74206f776e6572206e6f7220617070726f76656420666f7220616c6c4552433732313a2062616c616e636520717565727920666f7220746865207a65726f20616464726573734552433732313a206f776e657220717565727920666f72206e6f6e6578697374656e7420746f6b656e536166654d6174683a206d756c7469706c69636174696f6e206f766572666c6f774552433732313a20617070726f76656420717565727920666f72206e6f6e6578697374656e7420746f6b656e4552433732313a207472616e73666572206f6620746f6b656e2074686174206973206e6f74206f776e726566756e64206973206f6e6c7920617661696c61626c6520666f7220636163616e63656c6564206576656e74734552433732314d657461646174613a2055524920717565727920666f72206e6f6e6578697374656e7420746f6b656e4552433732313a20617070726f76616c20746f2063757272656e74206f776e65724552433732313a207472616e736665722063616c6c6572206973206e6f74206f776e6572206e6f7220617070726f766564455243373231456e756d657261626c653a20676c6f62616c20696e646578206f7574206f6620626f756e64734552433732313a206275726e206f6620746f6b656e2074686174206973206e6f74206f776ea265627a7a72315820637a7c8cefff85fe41245be72cf2d41b9cb4892734505a986504445bde4ef62f64736f6c63430005100032",
  "source": "pragma solidity ^0.5.0;\nimport \"./ERC721Full.sol\";\n\n/** @title Event */\ncontract Event is ERC721Full {\n    string public event_title;\n    uint256 public event_start;\n    uint256 private ticketId;\n    string public event_website;\n    string public event_description;\n    string public imageHash;\n    bool private canceled;\n    uint256 public ticket_price;\n    uint256 public number_tickets;\n    address payable public organizer;\n\n    event TicketPurchased(\n        address purchaser,\n        uint256 quanntity,\n        uint256 date,\n        address indexed indexedPurchased\n    );\n    event TicketTransfered(address _from, address _to, uint256 _tokenId);\n    event PaymentCollected(\n        address _event,\n        address _organizer,\n        uint256 _balance\n    );\n    event TicketRefended(\n        address _event,\n        address _requestedBy,\n        uint256 _ticketId,\n        uint256 _ticketPrice\n    );\n\n    constructor(\n        address payable _organizer,\n        string memory _event_title,\n        string memory _event_website,\n        string memory _event_description,\n        uint256 _event_start,\n        uint256 _ticket_price,\n        uint256 _number_tickets\n    ) public ERC721Full(_event_title, \"TKT\") {\n        event_title = _event_title;\n        event_website = _event_website;\n        event_description = _event_description;\n        event_start = _event_start;\n        ticket_price = _ticket_price;\n        number_tickets = _number_tickets;\n        organizer = _organizer;\n    }\n\n    /**\n    @dev allows user to purchase ticket for the event\n    @param quantity total amount of ticket the user wishes to purchase maximum amount is 5\n    */\n    function purchaseTicket(uint256 quantity) public payable {\n        require(\n            number_tickets >= quantity,\n            \"not enough ticket quantity available!!!\"\n        );\n        require(\n            msg.value >= ticket_price.mul(quantity),\n            \"not enough money sent\"\n        );\n\n        for (uint8 i = 0; i < quantity; i++) {\n            ticketId++;\n            number_tickets--;\n            _mint(msg.sender, ticketId);\n        }\n\n        emit TicketPurchased(msg.sender, quantity, now, msg.sender);\n    }\n\n    /**\n    @dev allows users to upload image of the event\n    @param _imageHash image hash stored o IPFS\n     */\n    function setImage(string memory _imageHash) public {\n        imageHash = _imageHash;\n    }\n\n    /**\n    \n    @dev allow ticket holders to transfer ownership of there ticket to other users\n    @param _to address of the reciever \n    @param _tokenId id of the ticket to be transfered\n    */\n    function transferTicket(address _to, uint256 _tokenId) public {\n        require(address(0) != _to, \"invalid address provided\");\n        transferFrom(msg.sender, _to, _tokenId);\n        emit TicketTransfered(msg.sender, _to, _tokenId);\n    }\n\n    /**\n    \n    @dev validated if a given ticket id is owned by the given user \n    @param _owner address of the owner of ticket to be validated\n    @param _tokenId id of the ticket to be validated\n    @return x boolean value holding the result \n    */\n    function isTicketValid(address _owner, uint256 _tokenId)\n        public\n        onlyOwner\n        returns (bool)\n    {\n        if (ownerOf(_tokenId) == _owner) {\n            _burn(_tokenId);\n            return true;\n        } else {\n            return false;\n        }\n    }\n\n    /**\n    \n    @dev allows event organizers to cancel events they have created \n    */\n\n    function cancelEvent() public onlyOwner {\n        // require(now > startDate, \"can not cancel event after it has started\");\n        canceled = true;\n    }\n\n    /**\n  \n  \n  @dev returns tickets array owned by a given user\n  @param _owner address of the required \n  @return x arrays of ticket id owned by user\n  */\n    function getOwnersTicket(address _owner)\n        public\n        view\n        returns (uint256[] memory)\n    {\n        return _tokensOfOwner(_owner);\n    }\n\n    /**\n    \n    @dev lets event organizer get ether collected for tickets sold for the event\n     */\n\n    function collectPayment() public onlyOwner {\n        // require(now > endDate && !canceled, \"can not collect payment before the event is over\");\n        //owner.transfer(address(this).balance);\n        selfdestruct(msg.sender);\n        emit PaymentCollected(address(this), msg.sender, address(this).balance);\n    }\n\n    /**\n    \n    @dev returns ether for each ticket the user has incase the event is canceled\n    @param ticket id of the ticket to get refunds for\n     */\n    function getRefund(uint256 ticket) public {\n        require(address(0) != msg.sender, \"invalid address provided\");\n        require(canceled, \"refund is only available for cacanceled events\");\n        _burn(ticket);\n        msg.sender.transfer(ticket_price);\n        emit TicketRefended(address(this), msg.sender, ticket, ticket_price);\n    }\n\n    /**\n    \n    @dev lets users check if the event is canceled or not\n    @return true or false\n     */\n\n    function isCanceled() public view returns (bool) {\n        return canceled;\n    }\n\n    /**\n    \n    @dev modifier that checked if current request is made by the event owner \n     */\n    modifier onlyOwner() {\n        require(\n            msg.sender == organizer,\n            \"only event owner is allowed to perform this action\"\n        );\n        _;\n    }\n}\n",
  "sourcePath": "C:\\Users\\Azizkhalledi\\Desktop\\Web Solidity\\testtest\\Ticketsystem\\Ticketsystem\\contracts\\Event.sol",
  "compiler": {
    "name": "solc",
    "version": "0.5.16+commit.9c3226ce.Emscripten.clang"
  },
  "schemaVersion": "3.4.8",
  "updatedAt": "2022-07-22T16:07:23.513Z",
  "devdoc": {
    "methods": {
      "approve(address,uint256)": {
        "details": "Approves another address to transfer the given token ID The zero address indicates there is no approved address. There can only be one approved address per token at a given time. Can only be called by the token owner or an approved operator.",
        "params": {
          "to": "address to be approved for the given token ID",
          "tokenId": "uint256 ID of the token to be approved"
        }
      },
      "balanceOf(address)": {
        "details": "Gets the balance of the specified address.",
        "params": {
          "owner": "address to query the balance of"
        },
        "return": "uint256 representing the amount owned by the passed address"
      },
      "cancelEvent()": {
        "details": "allows event organizers to cancel events they have created "
      },
      "collectPayment()": {
        "details": "lets event organizer get ether collected for tickets sold for the event"
      },
      "getApproved(uint256)": {
        "details": "Gets the approved address for a token ID, or zero if no address set Reverts if the token ID does not exist.",
        "params": {
          "tokenId": "uint256 ID of the token to query the approval of"
        },
        "return": "address currently approved for the given token ID"
      },
      "getOwnersTicket(address)": {
        "details": "returns tickets array owned by a given user",
        "params": {
          "_owner": "address of the required "
        },
        "return": "x arrays of ticket id owned by user"
      },
      "getRefund(uint256)": {
        "details": "returns ether for each ticket the user has incase the event is canceled",
        "params": {
          "ticket": "id of the ticket to get refunds for"
        }
      },
      "isApprovedForAll(address,address)": {
        "details": "Tells whether an operator is approved by a given owner.",
        "params": {
          "operator": "operator address which you want to query the approval of",
          "owner": "owner address which you want to query the approval of"
        },
        "return": "bool whether the given operator is approved by the given owner"
      },
      "isCanceled()": {
        "details": "lets users check if the event is canceled or not",
        "return": "true or false"
      },
      "isTicketValid(address,uint256)": {
        "details": "validated if a given ticket id is owned by the given user ",
        "params": {
          "_owner": "address of the owner of ticket to be validated",
          "_tokenId": "id of the ticket to be validated"
        },
        "return": "x boolean value holding the result "
      },
      "name()": {
        "details": "Gets the token name.",
        "return": "string representing the token name"
      },
      "ownerOf(uint256)": {
        "details": "Gets the owner of the specified token ID.",
        "params": {
          "tokenId": "uint256 ID of the token to query the owner of"
        },
        "return": "address currently marked as the owner of the given token ID"
      },
      "purchaseTicket(uint256)": {
        "details": "allows user to purchase ticket for the event",
        "params": {
          "quantity": "total amount of ticket the user wishes to purchase maximum amount is 5"
        }
      },
      "safeTransferFrom(address,address,uint256)": {
        "details": "Safely transfers the ownership of a given token ID to another address If the target address is a contract, it must implement `onERC721Received`, which is called upon a safe transfer, and return the magic value `bytes4(keccak256(\"onERC721Received(address,address,uint256,bytes)\"))`; otherwise, the transfer is reverted. Requires the msg.sender to be the owner, approved, or operator",
        "params": {
          "from": "current owner of the token",
          "to": "address to receive the ownership of the given token ID",
          "tokenId": "uint256 ID of the token to be transferred"
        }
      },
      "safeTransferFrom(address,address,uint256,bytes)": {
        "details": "Safely transfers the ownership of a given token ID to another address If the target address is a contract, it must implement `onERC721Received`, which is called upon a safe transfer, and return the magic value `bytes4(keccak256(\"onERC721Received(address,address,uint256,bytes)\"))`; otherwise, the transfer is reverted. Requires the msg.sender to be the owner, approved, or operator",
        "params": {
          "_data": "bytes data to send along with a safe transfer check",
          "from": "current owner of the token",
          "to": "address to receive the ownership of the given token ID",
          "tokenId": "uint256 ID of the token to be transferred"
        }
      },
      "setApprovalForAll(address,bool)": {
        "details": "Sets or unsets the approval of a given operator An operator is allowed to transfer all tokens of the sender on their behalf.",
        "params": {
          "approved": "representing the status of the approval to be set",
          "to": "operator address to set the approval"
        }
      },
      "setImage(string)": {
        "details": "allows users to upload image of the event",
        "params": {
          "_imageHash": "image hash stored o IPFS"
        }
      },
      "supportsInterface(bytes4)": {
        "details": "See `IERC165.supportsInterface`.     * Time complexity O(1), guaranteed to always use less than 30 000 gas."
      },
      "symbol()": {
        "details": "Gets the token symbol.",
        "return": "string representing the token symbol"
      },
      "tokenByIndex(uint256)": {
        "details": "Gets the token ID at a given index of all the tokens in this contract Reverts if the index is greater or equal to the total number of tokens.",
        "params": {
          "index": "uint256 representing the index to be accessed of the tokens list"
        },
        "return": "uint256 token ID at the given index of the tokens list"
      },
      "tokenOfOwnerByIndex(address,uint256)": {
        "details": "Gets the token ID at a given index of the tokens list of the requested owner.",
        "params": {
          "index": "uint256 representing the index to be accessed of the requested tokens list",
          "owner": "address owning the tokens list to be accessed"
        },
        "return": "uint256 token ID at the given index of the tokens list owned by the requested address"
      },
      "tokenURI(uint256)": {
        "details": "Returns an URI for a given token ID. Throws if the token ID does not exist. May return an empty string.",
        "params": {
          "tokenId": "uint256 ID of the token to query"
        }
      },
      "totalSupply()": {
        "details": "Gets the total amount of tokens stored by the contract.",
        "return": "uint256 representing the total amount of tokens"
      },
      "transferFrom(address,address,uint256)": {
        "details": "Transfers the ownership of a given token ID to another address. Usage of this method is discouraged, use `safeTransferFrom` whenever possible. Requires the msg.sender to be the owner, approved, or operator.",
        "params": {
          "from": "current owner of the token",
          "to": "address to receive the ownership of the given token ID",
          "tokenId": "uint256 ID of the token to be transferred"
        }
      },
      "transferTicket(address,uint256)": {
        "details": "allow ticket holders to transfer ownership of there ticket to other users",
        "params": {
          "_to": "address of the reciever ",
          "_tokenId": "id of the ticket to be transfered"
        }
      }
    },
    "title": "Event "
  },
  "userdoc": {
    "methods": {}
  }
}